{
  "_format": "hh-sol-artifact-1",
  "contractName": "CertificateNft",
  "sourceName": "contracts/CertificateNft.sol",
  "abi": [
    {
      "inputs": [],
      "stateMutability": "nonpayable",
      "type": "constructor"
    },
    {
      "inputs": [],
      "name": "AccessControlBadConfirmation",
      "type": "error"
    },
    {
      "inputs": [
        {
          "internalType": "address",
          "name": "account",
          "type": "address"
        },
        {
          "internalType": "bytes32",
          "name": "neededRole",
          "type": "bytes32"
        }
      ],
      "name": "AccessControlUnauthorizedAccount",
      "type": "error"
    },
    {
      "inputs": [
        {
          "internalType": "address",
          "name": "sender",
          "type": "address"
        },
        {
          "internalType": "uint256",
          "name": "tokenId",
          "type": "uint256"
        },
        {
          "internalType": "address",
          "name": "owner",
          "type": "address"
        }
      ],
      "name": "ERC721IncorrectOwner",
      "type": "error"
    },
    {
      "inputs": [
        {
          "internalType": "address",
          "name": "operator",
          "type": "address"
        },
        {
          "internalType": "uint256",
          "name": "tokenId",
          "type": "uint256"
        }
      ],
      "name": "ERC721InsufficientApproval",
      "type": "error"
    },
    {
      "inputs": [
        {
          "internalType": "address",
          "name": "approver",
          "type": "address"
        }
      ],
      "name": "ERC721InvalidApprover",
      "type": "error"
    },
    {
      "inputs": [
        {
          "internalType": "address",
          "name": "operator",
          "type": "address"
        }
      ],
      "name": "ERC721InvalidOperator",
      "type": "error"
    },
    {
      "inputs": [
        {
          "internalType": "address",
          "name": "owner",
          "type": "address"
        }
      ],
      "name": "ERC721InvalidOwner",
      "type": "error"
    },
    {
      "inputs": [
        {
          "internalType": "address",
          "name": "receiver",
          "type": "address"
        }
      ],
      "name": "ERC721InvalidReceiver",
      "type": "error"
    },
    {
      "inputs": [
        {
          "internalType": "address",
          "name": "sender",
          "type": "address"
        }
      ],
      "name": "ERC721InvalidSender",
      "type": "error"
    },
    {
      "inputs": [
        {
          "internalType": "uint256",
          "name": "tokenId",
          "type": "uint256"
        }
      ],
      "name": "ERC721NonexistentToken",
      "type": "error"
    },
    {
      "anonymous": false,
      "inputs": [
        {
          "indexed": true,
          "internalType": "address",
          "name": "owner",
          "type": "address"
        },
        {
          "indexed": true,
          "internalType": "address",
          "name": "approved",
          "type": "address"
        },
        {
          "indexed": true,
          "internalType": "uint256",
          "name": "tokenId",
          "type": "uint256"
        }
      ],
      "name": "Approval",
      "type": "event"
    },
    {
      "anonymous": false,
      "inputs": [
        {
          "indexed": true,
          "internalType": "address",
          "name": "owner",
          "type": "address"
        },
        {
          "indexed": true,
          "internalType": "address",
          "name": "operator",
          "type": "address"
        },
        {
          "indexed": false,
          "internalType": "bool",
          "name": "approved",
          "type": "bool"
        }
      ],
      "name": "ApprovalForAll",
      "type": "event"
    },
    {
      "anonymous": false,
      "inputs": [
        {
          "indexed": true,
          "internalType": "uint256",
          "name": "tokenId",
          "type": "uint256"
        },
        {
          "indexed": true,
          "internalType": "address",
          "name": "issuer",
          "type": "address"
        },
        {
          "indexed": true,
          "internalType": "address",
          "name": "recipient",
          "type": "address"
        }
      ],
      "name": "CertificateIssued",
      "type": "event"
    },
    {
      "anonymous": false,
      "inputs": [
        {
          "indexed": true,
          "internalType": "address",
          "name": "issuerAddress",
          "type": "address"
        }
      ],
      "name": "IssuerAdded",
      "type": "event"
    },
    {
      "anonymous": false,
      "inputs": [
        {
          "indexed": true,
          "internalType": "address",
          "name": "issuerAddress",
          "type": "address"
        }
      ],
      "name": "IssuerRoleRevoked",
      "type": "event"
    },
    {
      "anonymous": false,
      "inputs": [
        {
          "indexed": true,
          "internalType": "address",
          "name": "issuerAddress",
          "type": "address"
        },
        {
          "indexed": false,
          "internalType": "enum CertificateNft.IssuerStatus",
          "name": "oldStatus",
          "type": "uint8"
        },
        {
          "indexed": false,
          "internalType": "enum CertificateNft.IssuerStatus",
          "name": "newStatus",
          "type": "uint8"
        }
      ],
      "name": "IssuerStatusUpdated",
      "type": "event"
    },
    {
      "anonymous": false,
      "inputs": [
        {
          "indexed": true,
          "internalType": "bytes32",
          "name": "role",
          "type": "bytes32"
        },
        {
          "indexed": true,
          "internalType": "bytes32",
          "name": "previousAdminRole",
          "type": "bytes32"
        },
        {
          "indexed": true,
          "internalType": "bytes32",
          "name": "newAdminRole",
          "type": "bytes32"
        }
      ],
      "name": "RoleAdminChanged",
      "type": "event"
    },
    {
      "anonymous": false,
      "inputs": [
        {
          "indexed": true,
          "internalType": "bytes32",
          "name": "role",
          "type": "bytes32"
        },
        {
          "indexed": true,
          "internalType": "address",
          "name": "account",
          "type": "address"
        },
        {
          "indexed": true,
          "internalType": "address",
          "name": "sender",
          "type": "address"
        }
      ],
      "name": "RoleGranted",
      "type": "event"
    },
    {
      "anonymous": false,
      "inputs": [
        {
          "indexed": true,
          "internalType": "bytes32",
          "name": "role",
          "type": "bytes32"
        },
        {
          "indexed": true,
          "internalType": "address",
          "name": "account",
          "type": "address"
        },
        {
          "indexed": true,
          "internalType": "address",
          "name": "sender",
          "type": "address"
        }
      ],
      "name": "RoleRevoked",
      "type": "event"
    },
    {
      "anonymous": false,
      "inputs": [
        {
          "indexed": true,
          "internalType": "address",
          "name": "from",
          "type": "address"
        },
        {
          "indexed": true,
          "internalType": "address",
          "name": "to",
          "type": "address"
        },
        {
          "indexed": true,
          "internalType": "uint256",
          "name": "tokenId",
          "type": "uint256"
        }
      ],
      "name": "Transfer",
      "type": "event"
    },
    {
      "inputs": [],
      "name": "ADMIN_ROLE",
      "outputs": [
        {
          "internalType": "bytes32",
          "name": "",
          "type": "bytes32"
        }
      ],
      "stateMutability": "view",
      "type": "function"
    },
    {
      "inputs": [],
      "name": "DEFAULT_ADMIN_ROLE",
      "outputs": [
        {
          "internalType": "bytes32",
          "name": "",
          "type": "bytes32"
        }
      ],
      "stateMutability": "view",
      "type": "function"
    },
    {
      "inputs": [],
      "name": "ISSUER_ROLE",
      "outputs": [
        {
          "internalType": "bytes32",
          "name": "",
          "type": "bytes32"
        }
      ],
      "stateMutability": "view",
      "type": "function"
    },
    {
      "inputs": [
        {
          "internalType": "address",
          "name": "_issuerAddress",
          "type": "address"
        },
        {
          "internalType": "string",
          "name": "_name",
          "type": "string"
        },
        {
          "internalType": "string",
          "name": "_website",
          "type": "string"
        }
      ],
      "name": "addIssuer",
      "outputs": [],
      "stateMutability": "nonpayable",
      "type": "function"
    },
    {
      "inputs": [
        {
          "internalType": "address",
          "name": "to",
          "type": "address"
        },
        {
          "internalType": "uint256",
          "name": "tokenId",
          "type": "uint256"
        }
      ],
      "name": "approve",
      "outputs": [],
      "stateMutability": "nonpayable",
      "type": "function"
    },
    {
      "inputs": [
        {
          "internalType": "address",
          "name": "owner",
          "type": "address"
        }
      ],
      "name": "balanceOf",
      "outputs": [
        {
          "internalType": "uint256",
          "name": "",
          "type": "uint256"
        }
      ],
      "stateMutability": "view",
      "type": "function"
    },
    {
      "inputs": [
        {
          "internalType": "uint256",
          "name": "",
          "type": "uint256"
        }
      ],
      "name": "certificateDetails",
      "outputs": [
        {
          "internalType": "string",
          "name": "recipientName",
          "type": "string"
        },
        {
          "internalType": "address",
          "name": "recipientAddress",
          "type": "address"
        },
        {
          "internalType": "address",
          "name": "issuerAddress",
          "type": "address"
        },
        {
          "internalType": "uint256",
          "name": "issueDate",
          "type": "uint256"
        },
        {
          "internalType": "string",
          "name": "courseTitle",
          "type": "string"
        }
      ],
      "stateMutability": "view",
      "type": "function"
    },
    {
      "inputs": [
        {
          "internalType": "uint256",
          "name": "tokenId",
          "type": "uint256"
        }
      ],
      "name": "getApproved",
      "outputs": [
        {
          "internalType": "address",
          "name": "",
          "type": "address"
        }
      ],
      "stateMutability": "view",
      "type": "function"
    },
    {
      "inputs": [
        {
          "internalType": "uint256",
          "name": "_tokenId",
          "type": "uint256"
        }
      ],
      "name": "getCertificateDetails",
      "outputs": [
        {
          "components": [
            {
              "internalType": "string",
              "name": "recipientName",
              "type": "string"
            },
            {
              "internalType": "address",
              "name": "recipientAddress",
              "type": "address"
            },
            {
              "internalType": "address",
              "name": "issuerAddress",
              "type": "address"
            },
            {
              "internalType": "uint256",
              "name": "issueDate",
              "type": "uint256"
            },
            {
              "internalType": "string",
              "name": "courseTitle",
              "type": "string"
            }
          ],
          "internalType": "struct CertificateNft.CertificateData",
          "name": "",
          "type": "tuple"
        }
      ],
      "stateMutability": "view",
      "type": "function"
    },
    {
      "inputs": [
        {
          "internalType": "bytes32",
          "name": "role",
          "type": "bytes32"
        }
      ],
      "name": "getRoleAdmin",
      "outputs": [
        {
          "internalType": "bytes32",
          "name": "",
          "type": "bytes32"
        }
      ],
      "stateMutability": "view",
      "type": "function"
    },
    {
      "inputs": [
        {
          "internalType": "bytes32",
          "name": "role",
          "type": "bytes32"
        },
        {
          "internalType": "address",
          "name": "account",
          "type": "address"
        }
      ],
      "name": "grantRole",
      "outputs": [],
      "stateMutability": "nonpayable",
      "type": "function"
    },
    {
      "inputs": [
        {
          "internalType": "bytes32",
          "name": "role",
          "type": "bytes32"
        },
        {
          "internalType": "address",
          "name": "account",
          "type": "address"
        }
      ],
      "name": "hasRole",
      "outputs": [
        {
          "internalType": "bool",
          "name": "",
          "type": "bool"
        }
      ],
      "stateMutability": "view",
      "type": "function"
    },
    {
      "inputs": [
        {
          "internalType": "address",
          "name": "owner",
          "type": "address"
        },
        {
          "internalType": "address",
          "name": "operator",
          "type": "address"
        }
      ],
      "name": "isApprovedForAll",
      "outputs": [
        {
          "internalType": "bool",
          "name": "",
          "type": "bool"
        }
      ],
      "stateMutability": "view",
      "type": "function"
    },
    {
      "inputs": [
        {
          "internalType": "address",
          "name": "_recipientAddress",
          "type": "address"
        },
        {
          "internalType": "string",
          "name": "_recipientName",
          "type": "string"
        },
        {
          "internalType": "string",
          "name": "_courseTitle",
          "type": "string"
        }
      ],
      "name": "issueCertificate",
      "outputs": [],
      "stateMutability": "nonpayable",
      "type": "function"
    },
    {
      "inputs": [
        {
          "internalType": "address",
          "name": "",
          "type": "address"
        }
      ],
      "name": "issuers",
      "outputs": [
        {
          "internalType": "string",
          "name": "name",
          "type": "string"
        },
        {
          "internalType": "string",
          "name": "website",
          "type": "string"
        },
        {
          "internalType": "enum CertificateNft.IssuerStatus",
          "name": "status",
          "type": "uint8"
        },
        {
          "internalType": "uint256",
          "name": "registrationDate",
          "type": "uint256"
        }
      ],
      "stateMutability": "view",
      "type": "function"
    },
    {
      "inputs": [],
      "name": "name",
      "outputs": [
        {
          "internalType": "string",
          "name": "",
          "type": "string"
        }
      ],
      "stateMutability": "view",
      "type": "function"
    },
    {
      "inputs": [
        {
          "internalType": "uint256",
          "name": "tokenId",
          "type": "uint256"
        }
      ],
      "name": "ownerOf",
      "outputs": [
        {
          "internalType": "address",
          "name": "",
          "type": "address"
        }
      ],
      "stateMutability": "view",
      "type": "function"
    },
    {
      "inputs": [
        {
          "internalType": "bytes32",
          "name": "role",
          "type": "bytes32"
        },
        {
          "internalType": "address",
          "name": "callerConfirmation",
          "type": "address"
        }
      ],
      "name": "renounceRole",
      "outputs": [],
      "stateMutability": "nonpayable",
      "type": "function"
    },
    {
      "inputs": [
        {
          "internalType": "bytes32",
          "name": "role",
          "type": "bytes32"
        },
        {
          "internalType": "address",
          "name": "account",
          "type": "address"
        }
      ],
      "name": "revokeRole",
      "outputs": [],
      "stateMutability": "nonpayable",
      "type": "function"
    },
    {
      "inputs": [
        {
          "internalType": "address",
          "name": "from",
          "type": "address"
        },
        {
          "internalType": "address",
          "name": "to",
          "type": "address"
        },
        {
          "internalType": "uint256",
          "name": "tokenId",
          "type": "uint256"
        }
      ],
      "name": "safeTransferFrom",
      "outputs": [],
      "stateMutability": "nonpayable",
      "type": "function"
    },
    {
      "inputs": [
        {
          "internalType": "address",
          "name": "from",
          "type": "address"
        },
        {
          "internalType": "address",
          "name": "to",
          "type": "address"
        },
        {
          "internalType": "uint256",
          "name": "tokenId",
          "type": "uint256"
        },
        {
          "internalType": "bytes",
          "name": "data",
          "type": "bytes"
        }
      ],
      "name": "safeTransferFrom",
      "outputs": [],
      "stateMutability": "nonpayable",
      "type": "function"
    },
    {
      "inputs": [
        {
          "internalType": "address",
          "name": "operator",
          "type": "address"
        },
        {
          "internalType": "bool",
          "name": "approved",
          "type": "bool"
        }
      ],
      "name": "setApprovalForAll",
      "outputs": [],
      "stateMutability": "nonpayable",
      "type": "function"
    },
    {
      "inputs": [
        {
          "internalType": "bytes4",
          "name": "interfaceId",
          "type": "bytes4"
        }
      ],
      "name": "supportsInterface",
      "outputs": [
        {
          "internalType": "bool",
          "name": "",
          "type": "bool"
        }
      ],
      "stateMutability": "view",
      "type": "function"
    },
    {
      "inputs": [],
      "name": "symbol",
      "outputs": [
        {
          "internalType": "string",
          "name": "",
          "type": "string"
        }
      ],
      "stateMutability": "view",
      "type": "function"
    },
    {
      "inputs": [
        {
          "internalType": "uint256",
          "name": "tokenId",
          "type": "uint256"
        }
      ],
      "name": "tokenURI",
      "outputs": [
        {
          "internalType": "string",
          "name": "",
          "type": "string"
        }
      ],
      "stateMutability": "view",
      "type": "function"
    },
    {
      "inputs": [
        {
          "internalType": "address",
          "name": "from",
          "type": "address"
        },
        {
          "internalType": "address",
          "name": "to",
          "type": "address"
        },
        {
          "internalType": "uint256",
          "name": "tokenId",
          "type": "uint256"
        }
      ],
      "name": "transferFrom",
      "outputs": [],
      "stateMutability": "nonpayable",
      "type": "function"
    },
    {
      "inputs": [
        {
          "internalType": "address",
          "name": "_issuerAddress",
          "type": "address"
        },
        {
          "internalType": "enum CertificateNft.IssuerStatus",
          "name": "_newStatus",
          "type": "uint8"
        }
      ],
      "name": "updateIssuerStatus",
      "outputs": [],
      "stateMutability": "nonpayable",
      "type": "function"
    }
  ],
  "bytecode": "0x608060405234801561001057600080fd5b506040518060400160405280600c81526020017f43657274696679436861696e00000000000000000000000000000000000000008152506040518060400160405280600481526020017f4345525400000000000000000000000000000000000000000000000000000000815250816000908161008c919061057c565b50806001908161009c919061057c565b5050506100b26000801b3361013960201b60201c565b506100e37fa49807205ce4d355092ef5a8a18f56e8913cf4a201fbe287825b095693c217753361013960201b60201c565b506101347f114e74f6ea3bd819998f78687bfcb11b140da08e9b7d222fa9c1f1ba1f2aa1227fa49807205ce4d355092ef5a8a18f56e8913cf4a201fbe287825b095693c2177561023760201b60201c565b61064e565b600061014b838361029960201b60201c565b61022c5760016006600085815260200190815260200160002060000160008473ffffffffffffffffffffffffffffffffffffffff1673ffffffffffffffffffffffffffffffffffffffff16815260200190815260200160002060006101000a81548160ff0219169083151502179055506101c961030460201b60201c565b73ffffffffffffffffffffffffffffffffffffffff168273ffffffffffffffffffffffffffffffffffffffff16847f2f8788117e7eff1d82e926ec794901d17c78024a50270940304540a733656f0d60405160405180910390a460019050610231565b600090505b92915050565b60006102488361030c60201b60201c565b90508160066000858152602001908152602001600020600101819055508181847fbd79b86ffe0ab8e8776151514217cd7cacd52c909f66475c3af44e129f0b00ff60405160405180910390a4505050565b60006006600084815260200190815260200160002060000160008373ffffffffffffffffffffffffffffffffffffffff1673ffffffffffffffffffffffffffffffffffffffff16815260200190815260200160002060009054906101000a900460ff16905092915050565b600033905090565b600060066000838152602001908152602001600020600101549050919050565b600081519050919050565b7f4e487b7100000000000000000000000000000000000000000000000000000000600052604160045260246000fd5b7f4e487b7100000000000000000000000000000000000000000000000000000000600052602260045260246000fd5b600060028204905060018216806103ad57607f821691505b6020821081036103c0576103bf610366565b5b50919050565b60008190508160005260206000209050919050565b60006020601f8301049050919050565b600082821b905092915050565b6000600883026104287fffffffffffffffffffffffffffffffffffffffffffffffffffffffffffffffff826103eb565b61043286836103eb565b95508019841693508086168417925050509392505050565b6000819050919050565b6000819050919050565b600061047961047461046f8461044a565b610454565b61044a565b9050919050565b6000819050919050565b6104938361045e565b6104a761049f82610480565b8484546103f8565b825550505050565b600090565b6104bc6104af565b6104c781848461048a565b505050565b5b818110156104eb576104e06000826104b4565b6001810190506104cd565b5050565b601f82111561053057610501816103c6565b61050a846103db565b81016020851015610519578190505b61052d610525856103db565b8301826104cc565b50505b505050565b600082821c905092915050565b600061055360001984600802610535565b1980831691505092915050565b600061056c8383610542565b9150826002028217905092915050565b6105858261032c565b67ffffffffffffffff81111561059e5761059d610337565b5b6105a88254610395565b6105b38282856104ef565b600060209050601f8311600181146105e657600084156105d4578287015190505b6105de8582610560565b865550610646565b601f1984166105f4866103c6565b60005b8281101561061c578489015182556001820191506020850194506020810190506105f7565b868310156106395784890151610635601f891682610542565b8355505b6001600288020188555050505b505050505050565b613ebd8061065d6000396000f3fe608060405234801561001057600080fd5b50600436106101a95760003560e01c806370a08231116100f9578063a901fe5e11610097578063c87b56dd11610071578063c87b56dd146104f7578063d547741f14610527578063e985e9c514610543578063e98ac4d814610573576101a9565b8063a901fe5e1461048f578063b40d35e6146104bf578063b88d4fde146104db576101a9565b806391d14854116100d357806391d148541461040757806395d89b4114610437578063a217fddf14610455578063a22cb46514610473576101a9565b806370a082311461039b57806375b238fc146103cb57806382aefa24146103e9576101a9565b8063248a9ca31161016657806338a7543e1161014057806338a7543e146102e857806342842e0e1461031b57806344128c87146103375780636352211e1461036b576101a9565b8063248a9ca3146102805780632f2ff15d146102b057806336568abe146102cc576101a9565b806301ffc9a7146101ae57806306fdde03146101de578063081812fc146101fc578063095ea7b31461022c5780631aa76b431461024857806323b872dd14610264575b600080fd5b6101c860048036038101906101c39190612ba4565b61058f565b6040516101d59190612bec565b60405180910390f35b6101e66105a1565b6040516101f39190612c97565b60405180910390f35b61021660048036038101906102119190612cef565b610633565b6040516102239190612d5d565b60405180910390f35b61024660048036038101906102419190612da4565b61064f565b005b610262600480360381019061025d9190612f19565b610665565b005b61027e60048036038101906102799190612fa4565b610828565b005b61029a6004803603810190610295919061302d565b61092a565b6040516102a79190613069565b60405180910390f35b6102ca60048036038101906102c59190613084565b61094a565b005b6102e660048036038101906102e19190613084565b61096c565b005b61030260048036038101906102fd91906130c4565b6109e7565b6040516103129493929190613177565b60405180910390f35b61033560048036038101906103309190612fa4565b610b34565b005b610351600480360381019061034c9190612cef565b610b54565b6040516103629594939291906131ca565b60405180910390f35b61038560048036038101906103809190612cef565b610cda565b6040516103929190612d5d565b60405180910390f35b6103b560048036038101906103b091906130c4565b610cec565b6040516103c2919061322b565b60405180910390f35b6103d3610da6565b6040516103e09190613069565b60405180910390f35b6103f1610dca565b6040516103fe9190613069565b60405180910390f35b610421600480360381019061041c9190613084565b610dee565b60405161042e9190612bec565b60405180910390f35b61043f610e59565b60405161044c9190612c97565b60405180910390f35b61045d610eeb565b60405161046a9190613069565b60405180910390f35b61048d60048036038101906104889190613272565b610ef2565b005b6104a960048036038101906104a49190612cef565b610f08565b6040516104b69190613397565b60405180910390f35b6104d960048036038101906104d491906133de565b611157565b005b6104f560048036038101906104f091906134bf565b6114e0565b005b610511600480360381019061050c9190612cef565b611505565b60405161051e9190612c97565b60405180910390f35b610541600480360381019061053c9190613084565b61156e565b005b61055d60048036038101906105589190613542565b611590565b60405161056a9190612bec565b60405180910390f35b61058d60048036038101906105889190612f19565b611624565b005b600061059a826118bc565b9050919050565b6060600080546105b0906135b1565b80601f01602080910402602001604051908101604052809291908181526020018280546105dc906135b1565b80156106295780601f106105fe57610100808354040283529160200191610629565b820191906000526020600020905b81548152906001019060200180831161060c57829003601f168201915b5050505050905090565b600061063e82611936565b50610648826119be565b9050919050565b610661828261065c6119fb565b611a03565b5050565b7fa49807205ce4d355092ef5a8a18f56e8913cf4a201fbe287825b095693c2177561068f81611a15565b61069884611a29565b156106d8576040517f08c379a00000000000000000000000000000000000000000000000000000000081526004016106cf9061362e565b60405180910390fd5b6107027f114e74f6ea3bd819998f78687bfcb11b140da08e9b7d222fa9c1f1ba1f2aa12285611a78565b5060405180608001604052808481526020018381526020016000600281111561072e5761072d6130f1565b5b815260200142815250600760008673ffffffffffffffffffffffffffffffffffffffff1673ffffffffffffffffffffffffffffffffffffffff168152602001908152602001600020600082015181600001908161078b91906137fa565b5060208201518160010190816107a191906137fa565b5060408201518160020160006101000a81548160ff021916908360028111156107cd576107cc6130f1565b5b0217905550606082015181600301559050508373ffffffffffffffffffffffffffffffffffffffff167f05e7c881d716bee8cb7ed92293133ba156704252439e5c502c277448f04e20c260405160405180910390a250505050565b600073ffffffffffffffffffffffffffffffffffffffff168273ffffffffffffffffffffffffffffffffffffffff160361089a5760006040517f64a0ae920000000000000000000000000000000000000000000000000000000081526004016108919190612d5d565b60405180910390fd5b60006108ae83836108a96119fb565b611b6a565b90508373ffffffffffffffffffffffffffffffffffffffff168173ffffffffffffffffffffffffffffffffffffffff1614610924578382826040517f64283d7b00000000000000000000000000000000000000000000000000000000815260040161091b939291906138cc565b60405180910390fd5b50505050565b600060066000838152602001908152602001600020600101549050919050565b6109538261092a565b61095c81611a15565b6109668383611a78565b50505050565b6109746119fb565b73ffffffffffffffffffffffffffffffffffffffff168173ffffffffffffffffffffffffffffffffffffffff16146109d8576040517f6697b23200000000000000000000000000000000000000000000000000000000815260040160405180910390fd5b6109e28282611bf6565b505050565b6007602052806000526040600020600091509050806000018054610a0a906135b1565b80601f0160208091040260200160405190810160405280929190818152602001828054610a36906135b1565b8015610a835780601f10610a5857610100808354040283529160200191610a83565b820191906000526020600020905b815481529060010190602001808311610a6657829003601f168201915b505050505090806001018054610a98906135b1565b80601f0160208091040260200160405190810160405280929190818152602001828054610ac4906135b1565b8015610b115780601f10610ae657610100808354040283529160200191610b11565b820191906000526020600020905b815481529060010190602001808311610af457829003601f168201915b5050505050908060020160009054906101000a900460ff16908060030154905084565b610b4f838383604051806020016040528060008152506114e0565b505050565b6008602052806000526040600020600091509050806000018054610b77906135b1565b80601f0160208091040260200160405190810160405280929190818152602001828054610ba3906135b1565b8015610bf05780601f10610bc557610100808354040283529160200191610bf0565b820191906000526020600020905b815481529060010190602001808311610bd357829003601f168201915b5050505050908060010160009054906101000a900473ffffffffffffffffffffffffffffffffffffffff16908060020160009054906101000a900473ffffffffffffffffffffffffffffffffffffffff1690806003015490806004018054610c57906135b1565b80601f0160208091040260200160405190810160405280929190818152602001828054610c83906135b1565b8015610cd05780601f10610ca557610100808354040283529160200191610cd0565b820191906000526020600020905b815481529060010190602001808311610cb357829003601f168201915b5050505050905085565b6000610ce582611936565b9050919050565b60008073ffffffffffffffffffffffffffffffffffffffff168273ffffffffffffffffffffffffffffffffffffffff1603610d5f5760006040517f89c62b64000000000000000000000000000000000000000000000000000000008152600401610d569190612d5d565b60405180910390fd5b600360008373ffffffffffffffffffffffffffffffffffffffff1673ffffffffffffffffffffffffffffffffffffffff168152602001908152602001600020549050919050565b7fa49807205ce4d355092ef5a8a18f56e8913cf4a201fbe287825b095693c2177581565b7f114e74f6ea3bd819998f78687bfcb11b140da08e9b7d222fa9c1f1ba1f2aa12281565b60006006600084815260200190815260200160002060000160008373ffffffffffffffffffffffffffffffffffffffff1673ffffffffffffffffffffffffffffffffffffffff16815260200190815260200160002060009054906101000a900460ff16905092915050565b606060018054610e68906135b1565b80601f0160208091040260200160405190810160405280929190818152602001828054610e94906135b1565b8015610ee15780601f10610eb657610100808354040283529160200191610ee1565b820191906000526020600020905b815481529060010190602001808311610ec457829003601f168201915b5050505050905090565b6000801b81565b610f04610efd6119fb565b8383611ce9565b5050565b610f10612add565b610f1982611e58565b610f58576040517f08c379a0000000000000000000000000000000000000000000000000000000008152600401610f4f90613975565b60405180910390fd5b600860008381526020019081526020016000206040518060a0016040529081600082018054610f86906135b1565b80601f0160208091040260200160405190810160405280929190818152602001828054610fb2906135b1565b8015610fff5780601f10610fd457610100808354040283529160200191610fff565b820191906000526020600020905b815481529060010190602001808311610fe257829003601f168201915b505050505081526020016001820160009054906101000a900473ffffffffffffffffffffffffffffffffffffffff1673ffffffffffffffffffffffffffffffffffffffff1673ffffffffffffffffffffffffffffffffffffffff1681526020016002820160009054906101000a900473ffffffffffffffffffffffffffffffffffffffff1673ffffffffffffffffffffffffffffffffffffffff1673ffffffffffffffffffffffffffffffffffffffff168152602001600382015481526020016004820180546110ce906135b1565b80601f01602080910402602001604051908101604052809291908181526020018280546110fa906135b1565b80156111475780601f1061111c57610100808354040283529160200191611147565b820191906000526020600020905b81548152906001019060200180831161112a57829003601f168201915b5050505050815250509050919050565b7fa49807205ce4d355092ef5a8a18f56e8913cf4a201fbe287825b095693c2177561118181611a15565b61118a83611a29565b6111c9576040517f08c379a00000000000000000000000000000000000000000000000000000000081526004016111c0906139e1565b60405180910390fd5b6002808111156111dc576111db6130f1565b5b600760008573ffffffffffffffffffffffffffffffffffffffff1673ffffffffffffffffffffffffffffffffffffffff16815260200190815260200160002060020160009054906101000a900460ff16600281111561123e5761123d6130f1565b5b0361127e576040517f08c379a000000000000000000000000000000000000000000000000000000000815260040161127590613a73565b60405180910390fd5b816002811115611291576112906130f1565b5b600760008573ffffffffffffffffffffffffffffffffffffffff1673ffffffffffffffffffffffffffffffffffffffff16815260200190815260200160002060020160009054906101000a900460ff1660028111156112f3576112f26130f1565b5b03611333576040517f08c379a000000000000000000000000000000000000000000000000000000000815260040161132a90613b05565b60405180910390fd5b6000600760008573ffffffffffffffffffffffffffffffffffffffff1673ffffffffffffffffffffffffffffffffffffffff16815260200190815260200160002060020160009054906101000a900460ff16905082600760008673ffffffffffffffffffffffffffffffffffffffff1673ffffffffffffffffffffffffffffffffffffffff16815260200190815260200160002060020160006101000a81548160ff021916908360028111156113ec576113eb6130f1565b5b0217905550600280811115611404576114036130f1565b5b836002811115611417576114166130f1565b5b0361148a576114467f114e74f6ea3bd819998f78687bfcb11b140da08e9b7d222fa9c1f1ba1f2aa1228561156e565b8373ffffffffffffffffffffffffffffffffffffffff167f70e5731366f4f0270a8d85bf5fc3ec96501901765841256f45e7837c219380dc60405160405180910390a25b8373ffffffffffffffffffffffffffffffffffffffff167f306cbae2b893a21c74f09ed5caf2382f838a10c1e7a028d3654366fdae7df3d782856040516114d2929190613b25565b60405180910390a250505050565b6114eb848484610828565b6114ff6114f66119fb565b85858585611e7b565b50505050565b606061151082611936565b50600061151b61202c565b9050600081511161153b5760405180602001604052806000815250611566565b8061154584612043565b604051602001611556929190613b8a565b6040516020818303038152906040525b915050919050565b6115778261092a565b61158081611a15565b61158a8383611bf6565b50505050565b6000600560008473ffffffffffffffffffffffffffffffffffffffff1673ffffffffffffffffffffffffffffffffffffffff16815260200190815260200160002060008373ffffffffffffffffffffffffffffffffffffffff1673ffffffffffffffffffffffffffffffffffffffff16815260200190815260200160002060009054906101000a900460ff16905092915050565b7f114e74f6ea3bd819998f78687bfcb11b140da08e9b7d222fa9c1f1ba1f2aa12261164e81611a15565b60006002811115611662576116616130f1565b5b600760003373ffffffffffffffffffffffffffffffffffffffff1673ffffffffffffffffffffffffffffffffffffffff16815260200190815260200160002060020160009054906101000a900460ff1660028111156116c4576116c36130f1565b5b14611704576040517f08c379a00000000000000000000000000000000000000000000000000000000081526004016116fb90613bfa565b60405180910390fd5b600060095490506009600081548092919061171e90613c49565b91905055506040518060a001604052808581526020018673ffffffffffffffffffffffffffffffffffffffff1681526020013373ffffffffffffffffffffffffffffffffffffffff1681526020014281526020018481525060086000838152602001908152602001600020600082015181600001908161179e91906137fa565b5060208201518160010160006101000a81548173ffffffffffffffffffffffffffffffffffffffff021916908373ffffffffffffffffffffffffffffffffffffffff16021790555060408201518160020160006101000a81548173ffffffffffffffffffffffffffffffffffffffff021916908373ffffffffffffffffffffffffffffffffffffffff16021790555060608201518160030155608082015181600401908161184c91906137fa565b5090505061185a8582612111565b8473ffffffffffffffffffffffffffffffffffffffff163373ffffffffffffffffffffffffffffffffffffffff16827fb16be250054d8205b809d26284c657602bbfc725cfc68daca4dc60a78ff137a760405160405180910390a45050505050565b60007f7965db0b000000000000000000000000000000000000000000000000000000007bffffffffffffffffffffffffffffffffffffffffffffffffffffffff1916827bffffffffffffffffffffffffffffffffffffffffffffffffffffffff1916148061192f575061192e8261212f565b5b9050919050565b60008061194283612211565b9050600073ffffffffffffffffffffffffffffffffffffffff168173ffffffffffffffffffffffffffffffffffffffff16036119b557826040517f7e2732890000000000000000000000000000000000000000000000000000000081526004016119ac919061322b565b60405180910390fd5b80915050919050565b60006004600083815260200190815260200160002060009054906101000a900473ffffffffffffffffffffffffffffffffffffffff169050919050565b600033905090565b611a10838383600161224e565b505050565b611a2681611a216119fb565b612413565b50565b600080600760008473ffffffffffffffffffffffffffffffffffffffff1673ffffffffffffffffffffffffffffffffffffffff1681526020019081526020016000206003015414159050919050565b6000611a848383610dee565b611b5f5760016006600085815260200190815260200160002060000160008473ffffffffffffffffffffffffffffffffffffffff1673ffffffffffffffffffffffffffffffffffffffff16815260200190815260200160002060006101000a81548160ff021916908315150217905550611afc6119fb565b73ffffffffffffffffffffffffffffffffffffffff168273ffffffffffffffffffffffffffffffffffffffff16847f2f8788117e7eff1d82e926ec794901d17c78024a50270940304540a733656f0d60405160405180910390a460019050611b64565b600090505b92915050565b60008073ffffffffffffffffffffffffffffffffffffffff16611b8c84612211565b73ffffffffffffffffffffffffffffffffffffffff1614611be2576040517f08c379a0000000000000000000000000000000000000000000000000000000008152600401611bd990613d03565b60405180910390fd5b611bed848484612464565b90509392505050565b6000611c028383610dee565b15611cde5760006006600085815260200190815260200160002060000160008473ffffffffffffffffffffffffffffffffffffffff1673ffffffffffffffffffffffffffffffffffffffff16815260200190815260200160002060006101000a81548160ff021916908315150217905550611c7b6119fb565b73ffffffffffffffffffffffffffffffffffffffff168273ffffffffffffffffffffffffffffffffffffffff16847ff6391f5c32d9c69d2a47ea670b442974b53935d1edc7fd64eb21e047a839171b60405160405180910390a460019050611ce3565b600090505b92915050565b600073ffffffffffffffffffffffffffffffffffffffff168273ffffffffffffffffffffffffffffffffffffffff1603611d5a57816040517f5b08ba18000000000000000000000000000000000000000000000000000000008152600401611d519190612d5d565b60405180910390fd5b80600560008573ffffffffffffffffffffffffffffffffffffffff1673ffffffffffffffffffffffffffffffffffffffff16815260200190815260200160002060008473ffffffffffffffffffffffffffffffffffffffff1673ffffffffffffffffffffffffffffffffffffffff16815260200190815260200160002060006101000a81548160ff0219169083151502179055508173ffffffffffffffffffffffffffffffffffffffff168373ffffffffffffffffffffffffffffffffffffffff167f17307eab39ab6107e8899845ad3d59bd9653f200f220920489ca2b5937696c3183604051611e4b9190612bec565b60405180910390a3505050565b600080600860008481526020019081526020016000206003015414159050919050565b60008373ffffffffffffffffffffffffffffffffffffffff163b1115612025578273ffffffffffffffffffffffffffffffffffffffff1663150b7a02868685856040518563ffffffff1660e01b8152600401611eda9493929190613d78565b6020604051808303816000875af1925050508015611f1657506040513d601f19601f82011682018060405250810190611f139190613dd9565b60015b611f9a573d8060008114611f46576040519150601f19603f3d011682016040523d82523d6000602084013e611f4b565b606091505b506000815103611f9257836040517f64a0ae92000000000000000000000000000000000000000000000000000000008152600401611f899190612d5d565b60405180910390fd5b805160208201fd5b63150b7a0260e01b7bffffffffffffffffffffffffffffffffffffffffffffffffffffffff1916817bffffffffffffffffffffffffffffffffffffffffffffffffffffffff19161461202357836040517f64a0ae9200000000000000000000000000000000000000000000000000000000815260040161201a9190612d5d565b60405180910390fd5b505b5050505050565b606060405180602001604052806000815250905090565b6060600060016120528461267e565b01905060008167ffffffffffffffff81111561207157612070612dee565b5b6040519080825280601f01601f1916602001820160405280156120a35781602001600182028036833780820191505090505b509050600082602083010190505b600115612106578080600190039150507f3031323334353637383961626364656600000000000000000000000000000000600a86061a8153600a85816120fa576120f9613e06565b5b049450600085036120b1575b819350505050919050565b61212b8282604051806020016040528060008152506127d1565b5050565b60007f80ac58cd000000000000000000000000000000000000000000000000000000007bffffffffffffffffffffffffffffffffffffffffffffffffffffffff1916827bffffffffffffffffffffffffffffffffffffffffffffffffffffffff191614806121fa57507f5b5e139f000000000000000000000000000000000000000000000000000000007bffffffffffffffffffffffffffffffffffffffffffffffffffffffff1916827bffffffffffffffffffffffffffffffffffffffffffffffffffffffff1916145b8061220a5750612209826127f5565b5b9050919050565b60006002600083815260200190815260200160002060009054906101000a900473ffffffffffffffffffffffffffffffffffffffff169050919050565b80806122875750600073ffffffffffffffffffffffffffffffffffffffff168273ffffffffffffffffffffffffffffffffffffffff1614155b156123bb57600061229784611936565b9050600073ffffffffffffffffffffffffffffffffffffffff168373ffffffffffffffffffffffffffffffffffffffff161415801561230257508273ffffffffffffffffffffffffffffffffffffffff168173ffffffffffffffffffffffffffffffffffffffff1614155b801561231557506123138184611590565b155b1561235757826040517fa9fbf51f00000000000000000000000000000000000000000000000000000000815260040161234e9190612d5d565b60405180910390fd5b81156123b957838573ffffffffffffffffffffffffffffffffffffffff168273ffffffffffffffffffffffffffffffffffffffff167f8c5be1e5ebec7d5bd14f71427d1e84f3dd0314c0f7b2291e5b200ac8c7c3b92560405160405180910390a45b505b836004600085815260200190815260200160002060006101000a81548173ffffffffffffffffffffffffffffffffffffffff021916908373ffffffffffffffffffffffffffffffffffffffff16021790555050505050565b61241d8282610dee565b6124605780826040517fe2517d3f000000000000000000000000000000000000000000000000000000008152600401612457929190613e35565b60405180910390fd5b5050565b60008061247084612211565b9050600073ffffffffffffffffffffffffffffffffffffffff168373ffffffffffffffffffffffffffffffffffffffff16146124b2576124b181848661285f565b5b600073ffffffffffffffffffffffffffffffffffffffff168173ffffffffffffffffffffffffffffffffffffffff1614612543576124f460008560008061224e565b6001600360008373ffffffffffffffffffffffffffffffffffffffff1673ffffffffffffffffffffffffffffffffffffffff168152602001908152602001600020600082825403925050819055505b600073ffffffffffffffffffffffffffffffffffffffff168573ffffffffffffffffffffffffffffffffffffffff16146125c6576001600360008773ffffffffffffffffffffffffffffffffffffffff1673ffffffffffffffffffffffffffffffffffffffff168152602001908152602001600020600082825401925050819055505b846002600086815260200190815260200160002060006101000a81548173ffffffffffffffffffffffffffffffffffffffff021916908373ffffffffffffffffffffffffffffffffffffffff160217905550838573ffffffffffffffffffffffffffffffffffffffff168273ffffffffffffffffffffffffffffffffffffffff167fddf252ad1be2c89b69c2b068fc378daa952ba7f163c4a11628f55a4df523b3ef60405160405180910390a4809150509392505050565b600080600090507a184f03e93ff9f4daa797ed6e38ed64bf6a1f01000000000000000083106126dc577a184f03e93ff9f4daa797ed6e38ed64bf6a1f01000000000000000083816126d2576126d1613e06565b5b0492506040810190505b6d04ee2d6d415b85acef81000000008310612719576d04ee2d6d415b85acef8100000000838161270f5761270e613e06565b5b0492506020810190505b662386f26fc10000831061274857662386f26fc10000838161273e5761273d613e06565b5b0492506010810190505b6305f5e1008310612771576305f5e100838161276757612766613e06565b5b0492506008810190505b612710831061279657612710838161278c5761278b613e06565b5b0492506004810190505b606483106127b957606483816127af576127ae613e06565b5b0492506002810190505b600a83106127c8576001810190505b80915050919050565b6127db8383612923565b6127f06127e66119fb565b6000858585611e7b565b505050565b60007f01ffc9a7000000000000000000000000000000000000000000000000000000007bffffffffffffffffffffffffffffffffffffffffffffffffffffffff1916827bffffffffffffffffffffffffffffffffffffffffffffffffffffffff1916149050919050565b61286a838383612a1c565b61291e57600073ffffffffffffffffffffffffffffffffffffffff168373ffffffffffffffffffffffffffffffffffffffff16036128df57806040517f7e2732890000000000000000000000000000000000000000000000000000000081526004016128d6919061322b565b60405180910390fd5b81816040517f177e802f000000000000000000000000000000000000000000000000000000008152600401612915929190613e5e565b60405180910390fd5b505050565b600073ffffffffffffffffffffffffffffffffffffffff168273ffffffffffffffffffffffffffffffffffffffff16036129955760006040517f64a0ae9200000000000000000000000000000000000000000000000000000000815260040161298c9190612d5d565b60405180910390fd5b60006129a383836000611b6a565b9050600073ffffffffffffffffffffffffffffffffffffffff168173ffffffffffffffffffffffffffffffffffffffff1614612a175760006040517f73c6ac6e000000000000000000000000000000000000000000000000000000008152600401612a0e9190612d5d565b60405180910390fd5b505050565b60008073ffffffffffffffffffffffffffffffffffffffff168373ffffffffffffffffffffffffffffffffffffffff1614158015612ad457508273ffffffffffffffffffffffffffffffffffffffff168473ffffffffffffffffffffffffffffffffffffffff161480612a955750612a948484611590565b5b80612ad357508273ffffffffffffffffffffffffffffffffffffffff16612abb836119be565b73ffffffffffffffffffffffffffffffffffffffff16145b5b90509392505050565b6040518060a0016040528060608152602001600073ffffffffffffffffffffffffffffffffffffffff168152602001600073ffffffffffffffffffffffffffffffffffffffff16815260200160008152602001606081525090565b6000604051905090565b600080fd5b600080fd5b60007fffffffff0000000000000000000000000000000000000000000000000000000082169050919050565b612b8181612b4c565b8114612b8c57600080fd5b50565b600081359050612b9e81612b78565b92915050565b600060208284031215612bba57612bb9612b42565b5b6000612bc884828501612b8f565b91505092915050565b60008115159050919050565b612be681612bd1565b82525050565b6000602082019050612c016000830184612bdd565b92915050565b600081519050919050565b600082825260208201905092915050565b60005b83811015612c41578082015181840152602081019050612c26565b60008484015250505050565b6000601f19601f8301169050919050565b6000612c6982612c07565b612c738185612c12565b9350612c83818560208601612c23565b612c8c81612c4d565b840191505092915050565b60006020820190508181036000830152612cb18184612c5e565b905092915050565b6000819050919050565b612ccc81612cb9565b8114612cd757600080fd5b50565b600081359050612ce981612cc3565b92915050565b600060208284031215612d0557612d04612b42565b5b6000612d1384828501612cda565b91505092915050565b600073ffffffffffffffffffffffffffffffffffffffff82169050919050565b6000612d4782612d1c565b9050919050565b612d5781612d3c565b82525050565b6000602082019050612d726000830184612d4e565b92915050565b612d8181612d3c565b8114612d8c57600080fd5b50565b600081359050612d9e81612d78565b92915050565b60008060408385031215612dbb57612dba612b42565b5b6000612dc985828601612d8f565b9250506020612dda85828601612cda565b9150509250929050565b600080fd5b600080fd5b7f4e487b7100000000000000000000000000000000000000000000000000000000600052604160045260246000fd5b612e2682612c4d565b810181811067ffffffffffffffff82111715612e4557612e44612dee565b5b80604052505050565b6000612e58612b38565b9050612e648282612e1d565b919050565b600067ffffffffffffffff821115612e8457612e83612dee565b5b612e8d82612c4d565b9050602081019050919050565b82818337600083830152505050565b6000612ebc612eb784612e69565b612e4e565b905082815260208101848484011115612ed857612ed7612de9565b5b612ee3848285612e9a565b509392505050565b600082601f830112612f0057612eff612de4565b5b8135612f10848260208601612ea9565b91505092915050565b600080600060608486031215612f3257612f31612b42565b5b6000612f4086828701612d8f565b935050602084013567ffffffffffffffff811115612f6157612f60612b47565b5b612f6d86828701612eeb565b925050604084013567ffffffffffffffff811115612f8e57612f8d612b47565b5b612f9a86828701612eeb565b9150509250925092565b600080600060608486031215612fbd57612fbc612b42565b5b6000612fcb86828701612d8f565b9350506020612fdc86828701612d8f565b9250506040612fed86828701612cda565b9150509250925092565b6000819050919050565b61300a81612ff7565b811461301557600080fd5b50565b60008135905061302781613001565b92915050565b60006020828403121561304357613042612b42565b5b600061305184828501613018565b91505092915050565b61306381612ff7565b82525050565b600060208201905061307e600083018461305a565b92915050565b6000806040838503121561309b5761309a612b42565b5b60006130a985828601613018565b92505060206130ba85828601612d8f565b9150509250929050565b6000602082840312156130da576130d9612b42565b5b60006130e884828501612d8f565b91505092915050565b7f4e487b7100000000000000000000000000000000000000000000000000000000600052602160045260246000fd5b60038110613131576131306130f1565b5b50565b600081905061314282613120565b919050565b600061315282613134565b9050919050565b61316281613147565b82525050565b61317181612cb9565b82525050565b600060808201905081810360008301526131918187612c5e565b905081810360208301526131a58186612c5e565b90506131b46040830185613159565b6131c16060830184613168565b95945050505050565b600060a08201905081810360008301526131e48188612c5e565b90506131f36020830187612d4e565b6132006040830186612d4e565b61320d6060830185613168565b818103608083015261321f8184612c5e565b90509695505050505050565b60006020820190506132406000830184613168565b92915050565b61324f81612bd1565b811461325a57600080fd5b50565b60008135905061326c81613246565b92915050565b6000806040838503121561328957613288612b42565b5b600061329785828601612d8f565b92505060206132a88582860161325d565b9150509250929050565b600082825260208201905092915050565b60006132ce82612c07565b6132d881856132b2565b93506132e8818560208601612c23565b6132f181612c4d565b840191505092915050565b61330581612d3c565b82525050565b61331481612cb9565b82525050565b600060a083016000830151848203600086015261333782826132c3565b915050602083015161334c60208601826132fc565b50604083015161335f60408601826132fc565b506060830151613372606086018261330b565b506080830151848203608086015261338a82826132c3565b9150508091505092915050565b600060208201905081810360008301526133b1818461331a565b905092915050565b600381106133c657600080fd5b50565b6000813590506133d8816133b9565b92915050565b600080604083850312156133f5576133f4612b42565b5b600061340385828601612d8f565b9250506020613414858286016133c9565b9150509250929050565b600067ffffffffffffffff82111561343957613438612dee565b5b61344282612c4d565b9050602081019050919050565b600061346261345d8461341e565b612e4e565b90508281526020810184848401111561347e5761347d612de9565b5b613489848285612e9a565b509392505050565b600082601f8301126134a6576134a5612de4565b5b81356134b684826020860161344f565b91505092915050565b600080600080608085870312156134d9576134d8612b42565b5b60006134e787828801612d8f565b94505060206134f887828801612d8f565b935050604061350987828801612cda565b925050606085013567ffffffffffffffff81111561352a57613529612b47565b5b61353687828801613491565b91505092959194509250565b6000806040838503121561355957613558612b42565b5b600061356785828601612d8f565b925050602061357885828601612d8f565b9150509250929050565b7f4e487b7100000000000000000000000000000000000000000000000000000000600052602260045260246000fd5b600060028204905060018216806135c957607f821691505b6020821081036135dc576135db613582565b5b50919050565b7f436572746966793a2049737375657220616c7265616479206578697374000000600082015250565b6000613618601d83612c12565b9150613623826135e2565b602082019050919050565b600060208201905081810360008301526136478161360b565b9050919050565b60008190508160005260206000209050919050565b60006020601f8301049050919050565b600082821b905092915050565b6000600883026136b07fffffffffffffffffffffffffffffffffffffffffffffffffffffffffffffffff82613673565b6136ba8683613673565b95508019841693508086168417925050509392505050565b6000819050919050565b60006136f76136f26136ed84612cb9565b6136d2565b612cb9565b9050919050565b6000819050919050565b613711836136dc565b61372561371d826136fe565b848454613680565b825550505050565b600090565b61373a61372d565b613745818484613708565b505050565b5b818110156137695761375e600082613732565b60018101905061374b565b5050565b601f8211156137ae5761377f8161364e565b61378884613663565b81016020851015613797578190505b6137ab6137a385613663565b83018261374a565b50505b505050565b600082821c905092915050565b60006137d1600019846008026137b3565b1980831691505092915050565b60006137ea83836137c0565b9150826002028217905092915050565b61380382612c07565b67ffffffffffffffff81111561381c5761381b612dee565b5b61382682546135b1565b61383182828561376d565b600060209050601f8311600181146138645760008415613852578287015190505b61385c85826137de565b8655506138c4565b601f1984166138728661364e565b60005b8281101561389a57848901518255600182019150602085019450602081019050613875565b868310156138b757848901516138b3601f8916826137c0565b8355505b6001600288020188555050505b505050505050565b60006060820190506138e16000830186612d4e565b6138ee6020830185613168565b6138fb6040830184612d4e565b949350505050565b7f436572746966793a20436572746966696361746520646f6573206e6f7420657860008201527f6973740000000000000000000000000000000000000000000000000000000000602082015250565b600061395f602383612c12565b915061396a82613903565b604082019050919050565b6000602082019050818103600083015261398e81613952565b9050919050565b7f436572746966793a2049737375657220646f6573206e6f742065786973740000600082015250565b60006139cb601e83612c12565b91506139d682613995565b602082019050919050565b600060208201905081810360008301526139fa816139be565b9050919050565b7f436572746966793a20497373756572206973207065726d616e656e746c79206460008201527f6561637469766174656400000000000000000000000000000000000000000000602082015250565b6000613a5d602a83612c12565b9150613a6882613a01565b604082019050919050565b60006020820190508181036000830152613a8c81613a50565b9050919050565b7f436572746966793a2049737375657220616c726561647920686173207468697360008201527f2073746174757300000000000000000000000000000000000000000000000000602082015250565b6000613aef602783612c12565b9150613afa82613a93565b604082019050919050565b60006020820190508181036000830152613b1e81613ae2565b9050919050565b6000604082019050613b3a6000830185613159565b613b476020830184613159565b9392505050565b600081905092915050565b6000613b6482612c07565b613b6e8185613b4e565b9350613b7e818560208601612c23565b80840191505092915050565b6000613b968285613b59565b9150613ba28284613b59565b91508190509392505050565b7f436572746966793a20497373756572206973206e6f7420616374697665000000600082015250565b6000613be4601d83612c12565b9150613bef82613bae565b602082019050919050565b60006020820190508181036000830152613c1381613bd7565b9050919050565b7f4e487b7100000000000000000000000000000000000000000000000000000000600052601160045260246000fd5b6000613c5482612cb9565b91507fffffffffffffffffffffffffffffffffffffffffffffffffffffffffffffffff8203613c8657613c85613c1a565b5b600182019050919050565b7f536f756c626f756e643a205468697320746f6b656e206973206e6f6e2d74726160008201527f6e7366657261626c652e00000000000000000000000000000000000000000000602082015250565b6000613ced602a83612c12565b9150613cf882613c91565b604082019050919050565b60006020820190508181036000830152613d1c81613ce0565b9050919050565b600081519050919050565b600082825260208201905092915050565b6000613d4a82613d23565b613d548185613d2e565b9350613d64818560208601612c23565b613d6d81612c4d565b840191505092915050565b6000608082019050613d8d6000830187612d4e565b613d9a6020830186612d4e565b613da76040830185613168565b8181036060830152613db98184613d3f565b905095945050505050565b600081519050613dd381612b78565b92915050565b600060208284031215613def57613dee612b42565b5b6000613dfd84828501613dc4565b91505092915050565b7f4e487b7100000000000000000000000000000000000000000000000000000000600052601260045260246000fd5b6000604082019050613e4a6000830185612d4e565b613e57602083018461305a565b9392505050565b6000604082019050613e736000830185612d4e565b613e806020830184613168565b939250505056fea264697066735822122021899b48d91dc5c934c31e397ae8df65394c4a33c94f886073b850deb747230164736f6c634300081c0033",
  "linkReferences": {},
  "deployedLinkReferences": {}
}